{
  "contractName": "Faucet",
  "abi": [
    {
      "inputs": [],
      "name": "numberOfDonors",
      "outputs": [
        {
          "internalType": "uint256",
          "name": "",
          "type": "uint256"
        }
      ],
      "stateMutability": "view",
      "type": "function",
      "constant": true
    },
    {
      "stateMutability": "payable",
      "type": "receive",
      "payable": true
    },
    {
      "inputs": [],
      "name": "addFunds",
      "outputs": [],
      "stateMutability": "payable",
      "type": "function",
      "payable": true
    },
    {
      "inputs": [],
      "name": "getDonors",
      "outputs": [
        {
          "internalType": "address[]",
          "name": "",
          "type": "address[]"
        }
      ],
      "stateMutability": "view",
      "type": "function",
      "constant": true
    },
    {
      "inputs": [
        {
          "internalType": "uint8",
          "name": "index",
          "type": "uint8"
        }
      ],
      "name": "getDonorAtIndex",
      "outputs": [
        {
          "internalType": "address",
          "name": "",
          "type": "address"
        }
      ],
      "stateMutability": "view",
      "type": "function",
      "constant": true
    }
  ],
  "bytecode": "0x608060405234801561001057600080fd5b50610566806100206000396000f3fe6080604052600436106100435760003560e01c8063080b4b351461004f57806364b2e2d91461008c57806396f300d4146100b7578063a26759cb146100e25761004a565b3661004a57005b600080fd5b34801561005b57600080fd5b50610076600480360381019061007191906102fb565b6100ec565b60405161008391906103c7565b60405180910390f35b34801561009857600080fd5b506100a161012c565b6040516100ae9190610404565b60405180910390f35b3480156100c357600080fd5b506100cc610132565b6040516100d991906103e2565b60405180910390f35b6100ea610277565b005b6000600160008360ff16815260200190815260200160002060009054906101000a900473ffffffffffffffffffffffffffffffffffffffff169050919050565b60005481565b60606000805467ffffffffffffffff811115610177577f4e487b7100000000000000000000000000000000000000000000000000000000600052604160045260246000fd5b6040519080825280602002602001820160405280156101a55781602001602082028036833780820191505090505b50905060005b60005481101561026f576001600082815260200190815260200160002060009054906101000a900473ffffffffffffffffffffffffffffffffffffffff16828281518110610222577f4e487b7100000000000000000000000000000000000000000000000000000000600052603260045260246000fd5b602002602001019073ffffffffffffffffffffffffffffffffffffffff16908173ffffffffffffffffffffffffffffffffffffffff16815250508080610267906104a1565b9150506101ab565b508091505090565b600080600081548092919061028b906104a1565b919050559050336001600083815260200190815260200160002060006101000a81548173ffffffffffffffffffffffffffffffffffffffff021916908373ffffffffffffffffffffffffffffffffffffffff16021790555050565b6000813590506102f581610519565b92915050565b60006020828403121561030d57600080fd5b600061031b848285016102e6565b91505092915050565b6000610330838361033c565b60208301905092915050565b61034581610458565b82525050565b61035481610458565b82525050565b60006103658261042f565b61036f8185610447565b935061037a8361041f565b8060005b838110156103ab5781516103928882610324565b975061039d8361043a565b92505060018101905061037e565b5085935050505092915050565b6103c18161048a565b82525050565b60006020820190506103dc600083018461034b565b92915050565b600060208201905081810360008301526103fc818461035a565b905092915050565b600060208201905061041960008301846103b8565b92915050565b6000819050602082019050919050565b600081519050919050565b6000602082019050919050565b600082825260208201905092915050565b60006104638261046a565b9050919050565b600073ffffffffffffffffffffffffffffffffffffffff82169050919050565b6000819050919050565b600060ff82169050919050565b60006104ac8261048a565b91507fffffffffffffffffffffffffffffffffffffffffffffffffffffffffffffffff8214156104df576104de6104ea565b5b600182019050919050565b7f4e487b7100000000000000000000000000000000000000000000000000000000600052601160045260246000fd5b61052281610494565b811461052d57600080fd5b5056fea2646970667358221220b695b4e21f92ec9fc3ad9ee2ed76960a589897f2401db4fe6fcbbdb9cc02868764736f6c63430008040033",
  "immutableReferences": {},
  "source": "// SPDX-License-Identifier: MIT\r\npragma solidity >=0.4.22 <0.9.0;\r\n\r\ncontract Faucet {\r\n    //storage variables\r\n    uint public numberOfDonors;\r\n    mapping(uint => address) private donors;\r\n\r\n    receive() external payable{\r\n    }\r\n\r\n    function addFunds() external payable {\r\n        uint index = numberOfDonors++;\r\n        donors[index] = msg.sender;\r\n    }\r\n\r\n    function getDonors() public view returns(address[] memory) {\r\n        address[] memory _donors = new address[](numberOfDonors);\r\n        for(uint i=0; i<numberOfDonors; i++){\r\n            _donors[i] = donors[i];\r\n        }\r\n        return _donors;\r\n    }\r\n\r\n    //using this when a fucntion or variable is determined as external cost more gas to call an internal function.\r\n\r\n    function getDonorAtIndex(uint8 index) public view returns(address) {\r\n        return donors[index];\r\n    }\r\n\r\n\r\n\r\n}\r\n\r\n\r\n\r\n//const instance = await Faucet.deployed()\r\n//instance.addFunds({from:account[0], to:\"20000000000})",
  "sourcePath": "C:\\Users\\franc\\Documents\\reactProjects\\nftmarket\\client\\contracts\\Faucet.sol",
  "compiler": {
    "name": "solc",
    "version": "0.8.4+commit.c7e474f2.Emscripten.clang"
  },
  "schemaVersion": "3.4.6",
  "updatedAt": "2022-03-31T02:34:29.174Z",
  "networkType": "ethereum",
  "devdoc": {
    "kind": "dev",
    "methods": {},
    "version": 1
  },
  "userdoc": {
    "kind": "user",
    "methods": {},
    "version": 1
  }
}